S01D00004175746F6D6174656457696E646F775368616465732E7372656393
S113000019C033C032C031C0FFC02FC02EC02DC0B4
S11300102CC02BC02AC0E4C228C027C026C025C0DB
S113002024C023C022C021C020C01FC01EC01DC0C8
S11300301CC01BC011241FBECFEFD4E0DEBFCDBF58
S113004011E0A0E0B1E0EAE0F7E002C005900D9213
S1130050A230B107D9F721E0A2E0B1E001C01D92BE
S1130060A631B207E1F78FD04EC3CACF8330A1F4D3
S1130070219A92EC909380009AE1909381002FEF63
S11300803FE7309387002093860020E137E73093E1
S11300908900209388002CC08230A1F4219A82EC3C
S11300A0809380008AE1809381008FEF9FE7909393
S11300B08700809386008FE298E79093890080936D
S11300C0880008958130A1F4219A82EC8093800005
S11300D08AE1809381008FEF9FE79093870080935C
S11300E0860088EF95E790938900809388000895AF
S11300F0811105C02198E0E8F0E080811082089524
S1130100009761F4672B29F09BB181E089278BB9B3
S113011008958BB187608BB9589808958130910503
S113012061F4672B29F09BB182E089278BB908958C
S11301308BB187608BB9599808958230910561F429
S1130140672B29F09BB184E089278BB908958BB183
S113015087608BB95A9808958330910571F4672BA1
S113016029F09BB187E089278BB908958BB187600B
S11301708BB95A98599858980895019619F48BB1E7
S113018087608BB90895E1E8F0E08081886080831E
S1130190EFE6F0E0808182608083ECE7F0E080812C
S11301A08064808380818F7D8083EAE7F0E08081B2
S11301B08760808380818068808387B187B988B1B4
S11301C08E6688B986B180931201E8E6F0E08081FA
S11301D082608083ECE6F0E080818E638083789493
S11301E084E294EF90938900809388008AB18760B9
S11301F08AB98BB187608BB960E070E081E090E0F0
S11302007FDF83E033DFFFCF1F920F920FB60F9291
S113021011240F931F932F933F934F935F936F93E7
S11302207F938F939F93AF93BF93EF93FF9386B185
S11302309091120189278093110186B18093120154
S1130240ECE6F0E080818F7D8083339948C0F89498
S11302501092020110920301109204011092050100
S113026082E004DF60E070E082E090E049DF3399EF
S11302701DC08091020190910301A0910401B091ED
S113028005018091020190910301A0910401B091B4
S113029005010196A11DB11D8093020190930301F4
S11302A0A0930401B0930501339BE3CF80E0DEDE2D
S11302B08091020190910301A0910401B091050184
S11302C08093060190930701A0930801B09309015C
S11302D060E070E08FEF9FEF13DF789469C131998C
S11302E028C0F89481E0C2DE60E070E083E090E032
S11302F007DF319915C08091020190910301A0910B
S11303000401B09105010197A109B109809302018B
S113031090930301A0930401B0930501319BEBCFAB
S113032080E0A4DE60E070E08FEF9FEFE9DE789478
S11303303FC1329928C0F89482E098DE60E070E012
S113034081E090E0DDDE329915C080910201909148
S11303500301A0910401B09105010196A11DB11DF5
S11303608093020190930301A0930401B0930501CB
S1130370329BEBCF80E07ADE789460E070E08FEF20
S11303809FEFBEDE15C18091110184FF0EC0349B26
S113039006C060E070E082E090E0B2DE09C160E097
S11303A070E080E090E0ACDE03C1359901C120919A
S11303B00F013091100182E090E0F0E0E0E02115BF
S11303C0310509F07FC000910201109103012091D1
S11303D0040130910501409106015091070160919B
S11303E0080170910901041715072607370709F456
S11303F06DC01092100110920F0160E070E081E076
S113040090E07EDE60E070E08FEF9FEF79DE809118
S1130410020190910301A0910401B091050101969C
S1130420A11DB11D8093020190930301A0930401C7
S1130430B093050182E01ADE40910201509103015C
S1130440609104017091050180910601909107016A
S1130450A0910801B0910901481759076A077B0761
S113046040F58091020190910301A0910401B091A3
S113047005010196A11DB11D809302019093030112
S1130480A0930401B093050140910201509103012E
S1130490609104017091050180910601909107011A
S11304A0A0910801B0910901481759076A077B0711
S11304B0C0F280E0DBDD81E090E090931001809356
S11304C00F0171C02130310509F066C0409102016D
S11304D0509103016091040170910501452B462B55
S11304E0472B09F457C081E090E09093100180936A
S11304F00F0160E070E082E090E002DE8091020192
S113050090910301A0910401B09105010197A10903
S1130510B1098093020190930301A0930401B09365
S1130520050160E070E08FEF9FEFEADD81E09EDD82
S11305308091020190910301A0910401B091050101
S1130540892B8A2B8B2BF9F0809102019091030166
S1130550A0910401B09105010197A109B10980930B
S1130560020190930301A0930401B09305018091CB
S1130570020190910301A0910401B0910501892B1E
S11305808A2B8B2B09F780E071DD109210011092F9
S11305900F0109C02F2F3E2F019709F010CF309380
S11305A0100120930F0160E070E08FEF9FEFA8DD52
S11305B0ECE6F0E0808180628083FF91EF91BF914F
S11305C0AF919F918F917F916F915F914F913F91E7
S11305D02F911F910F910F900FBE0F901F901895A0
S11305E01F920F920FB60F9211242F933F934F93A4
S11305F05F936F937F938F939F93AF93BF93EF9387
S1130600FF9380910A0190910B010196813091052D
S113061029F090930B0180930A0164C010920B019E
S113062010920A01EAE7F0E080818064808380818F
S113063084FDFDCF80917800909179008B309240B9
S113064018F01092130103C081E08093130180918C
S113065013019091000198130EC020910C01309168
S11306600D012230310558F42F5F3F4F30930D01B7
S113067020930C0104C010920D0110920C01809380
S1130680000190910E01913081F4811121C080917B
S11306900C0190910D010297D9F410920E0160E0C3
S11306A070E082E090E02CDD18C0911111C081301F
S11306B079F480910C0190910D01029749F481E045
S11306C080930E0160E070E081E090E019DD05C0E8
S11306D060E070E083E090E013DDEAE7F0E0808121
S11306E080618083FF91EF91BF91AF919F918F9132
S11306F07F916F915F914F913F912F910F900FBE1A
S10D07000F901F901895F894FFCF96
S105070A0100E8
S9030000FC
