S01D00004175746F6D6174656457696E646F775368616465732E7372656393
S113000019C033C032C031C030C02FC02EC02DC083
S11300102CC02BC02AC06FC028C027C026C025C052
S113002024C023C022C021C020C01FC01EC01DC0C8
S11300301CC01BC011241FBECFEFD4E0DEBFCDBF58
S113004011E0A0E0B1E0E4E1F2E002C005900D921D
S1130050A230B107D9F721E0A2E0B1E001C01D92BE
S1130060AA30B207E1F702D0D3C0CACFE1E8F0E08A
S1130070808188608083AFE6B0E08C9182608C934D
S1130080ACE7B0E08C9180648C938C918F7D8C93E1
S1130090AAE7B0E08C9187608C938C9180688C93F4
S11300A0789484E294EF909389008093880080810F
S11300B0856080838AB187608AB98BB187608BB988
S11300C0FFCF9C019BB197609BB92115310511F4B9
S11300D0589808952130310511F459980895223023
S11300E0310511F45A9808952330310519F45A98BA
S11300F05998589808951F920F920FB60F92112491
S11301002F933F934F935F936F937F938F939F931B
S1130110AF93BF93EF93FF938091020190910301FA
S113012001968130910529F0909303018093020197
S11301305EC01092030110920201EAE7F0E08081B0
S113014080648083808184FDFDCF809178009091CC
S113015079008B30924018F01092070103C081E0BF
S113016080930701809107019091000198130EC0BC
S113017020910401309105012230310558F42F5F9C
S11301803F4F309305012093040104C010920501F0
S1130190109204018093000190910601913071F452
S11301A081111DC080910401909105010297B9F459
S11301B01092060182E090E084DF14C091110FC018
S11301C0813069F48091040190910501029739F41A
S11301D081E08093060181E090E073DF03C083E057
S11301E090E06FDFEAE7F0E0808180618083FF9137
S11301F0EF91BF91AF919F918F917F916F915F919B
S11302004F913F912F910F900FBE0F901F90189513
S1070210F894FFCF8C
S10502140100E3
S9030000FC
