:1000000019C033C032C031C0A4C02FC02EC02DC013
:100010002CC02BC02AC0DFC028C027C026C025C0E6
:1000200024C023C022C021C020C01FC01EC01DC0CC
:100030001CC01BC011241FBECFEFD4E0DEBFCDBF5C
:1000400011E0A0E0B1E0E0E0F3E002C005900D9225
:10005000A230B107D9F721E0A2E0B1E001C01D92C2
:10006000AB30B207E1F702D049C1CACFE1E8F0E016
:10007000808188608083EFE6F0E080818260808309
:10008000ECE7F0E080818064808380818F7D8083D5
:10009000EAE7F0E0808187608083808180688083E8
:1000A00087B187B988B18E6488B9E8E6F0E08081CD
:1000B00082608083ECE6F0E080818E6080837894BB
:1000C00084E294EF90938900809388008AB18760DE
:1000D0008AB98BB187608BB9FFCF009761F4672B2A
:1000E00029F09BB181E089278BB908958BB1876096
:1000F0008BB9589808958130910561F4672B29F0E8
:100100009BB182E089278BB908958BB187608BB949
:10011000599808958230910561F4672B29F09BB1BD
:1001200084E089278BB908958BB187608BB95A9881
:100130000895039769F4672B29F09BB187E089271D
:100140008BB908958BB187608BB95A985998589894
:1001500008951F920F920FB60F9211242F933F9381
:100160004F935F936F937F938F939F93AF93BF93BF
:10017000EF93FF9386B19091000189278093070147
:1001800096B19093000183FF06C061E070E083E0C8
:1001900090E0A3DF0FC081FF06C061E070E080E067
:1001A00090E09BDF07C082FF05C061E070E082E065
:1001B00090E093DFFF91EF91BF91AF919F918F916D
:1001C0007F916F915F914F913F912F910F900FBE53
:1001D0000F901F9018951F920F920FB60F92112437
:1001E0002F933F934F935F936F937F938F939F933F
:1001F000AF93BF93EF93FF9380910201909103011E
:1002000001968130910529F09093030180930201BA
:1002100064C01092030110920201EAE7F0E08081CD
:1002200080648083808184FDFDCF809178009091EF
:1002300079008B30924018F01092080103C081E0E1
:1002400080930801809108019091010198130EC0DC
:1002500020910401309105012230310558F42F5FBF
:100260003F4F309305012093040104C01092050113
:10027000109204018093010190910601913081F464
:10028000811121C080910401909105010297D9F458
:100290001092060160E070E082E090E01EDF18C07E
:1002A000911111C0813079F4809104019091050180
:1002B000029749F481E08093060160E070E081E0FC
:1002C00090E00BDF05C060E070E083E090E005DFC8
:1002D000EAE7F0E0808180618083FF91EF91BF9138
:1002E000AF919F918F917F916F915F914F913F91CE
:1002F0002F910F900FBE0F901F901895F894FFCF7D
:020300007F017B
:00000001FF
