:1000000019C033C032C031C017C12FC02EC02DC09F
:100010002CC02BC02AC029C028C027C026C082C33C
:1000200024C023C022C021C020C01FC01EC01DC0CC
:100030001CC01BC011241FBECFEFD4E0DEBFCDBF5C
:1000400011E0A0E0B1E0E8E4F9E002C005900D9213
:10005000A230B107D9F721E0A2E0B1E001C01D92C2
:10006000A831B207E1F79FD06DC4CACF8330A1F4A5
:10007000219A92EC909380009AE1909381002FEF67
:100080003FE7309387002093860020E137E73093E5
:100090008900209388002CC08230A1F4219A82EC40
:1000A000809380008AE1809381008FEF9FE7909397
:1000B0008700809386008FE298E790938900809371
:1000C000880008958130A1F4219A82EC8093800009
:1000D0008AE1809381008FEF9FE790938700809360
:1000E000860088EF95E790938900809388000895B3
:1000F000811105C02198E0E8F0E080811082089528
:10010000009761F4672B29F09BB181E089278BB9B7
:1001100008958BB187608BB9589808958130910507
:1001200061F4672B29F09BB182E089278BB9089590
:100130008BB187608BB9599808958230910561F42D
:10014000672B29F09BB184E089278BB908958BB187
:1001500087608BB95A9808958330910571F4672BA5
:1001600029F09BB187E089278BB908958BB187600F
:100170008BB95A985998589808958430910569F424
:10018000672B29F09BB186E089278BB908958BB145
:1001900086608BB95A9859980895019619F48BB1D5
:1001A00087608BB9089585B5826085BDECE7F0E086
:1001B00080818064808380818F7D8083EAE7F0E0A6
:1001C00080818760808380818068808387B187B9E0
:1001D00088B18E6688B986B180931401E8E6F0E0B4
:1001E000808182608083ECE6F0E080818E63808392
:1001F00078948AEF88BD84B5856084BD8AB18760B4
:100200008AB98BB187608BB9349B0BC060E070E01A
:1002100084E090E075DFEEE6F0E08081846080832A
:100220000AC060E070E08FEF9FEF6ADFEEE6F0E07B
:1002300080818B7F8083FFCF1F920F920FB60F922A
:1002400011240F931F932F933F934F935F936F93BB
:100250007F938F939F93AF93BF93EF93FF9386B159
:100260009091140189278093130186B18093140122
:10027000ECE6F0E080818F7D8083EEE6F0E0808127
:100280008B7F8083339956C0F894109204011092AA
:100290000501109206011092070182E0E7DE60E09E
:1002A00070E080E090E02CDF339B16C024C080918A
:1002B000040190910501A0910601B09107010196FA
:1002C000A11DB11D8093040190930501A093060127
:1002D000B093070133990FC08091020190910301FF
:1002E000892B29F38091040190910501A0910601C9
:1002F000B0910701DCCF80E0B9DE809104019091DC
:100300000501A0910601B091070180930801909327
:100310000901A0930A01B0930B0181E090E0909352
:1003200003018093020160E070E08FEF9FEFE8DE51
:100330007894C9C1319943C0F89480910401909197
:100340000501A0910601B0910701892B8A2B8B2B07
:1003500031F48091020190910301892B71F581E0C4
:1003600085DE319B16C027C0809104019091050164
:10037000A0910601B09107010197A109B1098093ED
:10038000040190930501A0930601B09307013199F0
:1003900012C08091020190910301892B29F3809171
:1003A000040190910501A0910601B0910701892BEC
:1003B0008A2B8B2BC9F680E059DE789484C1329960
:1003C00055C0F894409104015091050160910601D7
:1003D000709107018091080190910901A0910A0193
:1003E000B0910B01481759076A077B0730F08091DD
:1003F000020190910301892BB9F582E037DE329B2F
:1004000016C030C08091040190910501A0910601B1
:10041000B09107010196A11DB11D80930401909335
:100420000501A0930601B093070132991BC080918A
:10043000020190910301892B29F34091040150910D
:10044000050160910601709107018091080190916A
:100450000901A0910A01B0910B01481759076A07D9
:100460007B0780F280E002DE78942DC18091130139
:1004700084FF13C0349B0BC060E070E084E090E028
:100480003FDEEEE6F0E08081846080831CC1EEE612
:10049000F0E080818B7F808316C1359914C160E0C4
:1004A00070E084E090E02CDE209111013091120187
:1004B00082E090E0F0E0E0E02115310509F086C02F
:1004C000009104011091050120910601309107016E
:1004D000409108015091090160910A0170910B014E
:1004E000041715072607370709F474C01092120184
:1004F0001092110160E070E08FEF9FEF01DE8091BC
:10050000040190910501A0910601B09107010196A7
:10051000A11DB11D8093040190930501A0930601D4
:10052000B093070182E0A2DD4091040150910501E2
:100530006091060170910701809108019091090175
:10054000A0910A01B0910B01481759076A077B0770
:10055000A0F58091020190910301019771F58091BE
:10056000040190910501A0910601B0910701019647
:10057000A11DB11D8093040190930501A093060174
:10058000B09307014091040150910501609106016B
:10059000709107018091080190910901A0910A01D1
:1005A000B0910B01481759076A077B0730F4809117
:1005B000020190910301019791F280E057DD81E003
:1005C00090E0909312018093110178C021303105A1
:1005D00009F06DC040910401509105016091060140
:1005E00070910701452B462B472B09F45EC081E033
:1005F00090E09093120180931101809104019091F9
:100600000501A0910601B09107010197A109B10967
:100610008093040190930501A0930601B093070114
:1006200060E070E08FEF9FEF6BDD81E01FDD809178
:10063000040190910501A0910601B0910701892B59
:100640008A2B8B2B59F18091020190910301019724
:1006500029F58091040190910501A0910601B091C6
:1006600007010197A109B109809304019093050145
:10067000A0930601B09307018091040190910501B8
:10068000A0910601B0910701892B8A2B8B2B31F0A9
:1006900080910201909103010197D9F280E0E6DC9C
:1006A000109212011092110109C02F2F3E2F0197B5
:1006B00009F002CF309312012093110160E070E045
:1006C0008FEF9FEF1DDD349B0BC060E070E084E096
:1006D00090E016DDEEE6F0E08081846080830AC061
:1006E000EEE6F0E080818B7F808360E070E08FEF4A
:1006F0009FEF06DDECE6F0E0808180628083FF9171
:10070000EF91BF91AF919F918F917F916F915F9189
:100710004F913F912F911F910F910F900FBE0F900E
:100720001F9018951F920F920FB60F9211242F93BE
:100730003F934F935F936F937F938F939F93AF9369
:10074000BF93EF93FF9380910C0190910D0101965F
:1007500080322EE4920729F090930D0180930C01D2
:10076000E0C010920D0110920C01EAE7F0E08081E8
:1007700080648083808184FDFDCF8091780090919A
:1007800079008B30924018F01092150103C081E07F
:1007900080931501809115019091000198130EC06E
:1007A00020910E0130910F012230310558F42F5F56
:1007B0003F4F30930F0120930E0104C010920F01A0
:1007C00010920E018093000190911001913009F078
:1007D00047C08111A1C080910E0190910F01029735
:1007E00009F09AC01092100181E040DC8091040170
:1007F00090910501A0910601B0910701892B8A2BE8
:100800008B2B59F18091020190910301019729F5F9
:100810008091040190910501A0910601B09107011A
:100820000197A109B1098093040190930501A09358
:100830000601B09307018091040190910501A091F8
:100840000601B0910701892B8A2B8B2B31F0809107
:100850000201909103010197D9F280E007DC5CC0AE
:1008600091115AC0813009F057C080910E019091CA
:100870000F01029709F050C081E08093100182E0DF
:10088000F5DB4091040150910501609106017091E2
:1008900007018091080190910901A0910A01B0918E
:1008A0000B01481759076A077B07A0F580910201E1
:1008B00090910301019771F58091040190910501D8
:1008C000A0910601B09107010196A11DB11D809371
:1008D000040190930501A0930601B0930701409194
:1008E000040150910501609106017091070180910A
:1008F000080190910901A0910A01B0910B014817DC
:1009000059076A077B0730F4809102019091030137
:10091000019791F280E0AADBEAE7F0E08081806154
:100920008083FF91EF91BF91AF919F918F917F91C4
:100930006F915F914F913F912F910F900FBE0F904C
:080940001F901895F894FFCFF9
:020948000100AC
:00000001FF
