:1000000019C033C032C031C0A4C02FC02EC02DC013
:100010002CC02BC02AC061C128C027C026C025C063
:1000200024C023C022C021C020C01FC01EC01DC0CC
:100030001CC01BC011241FBECFEFD4E0DEBFCDBF5C
:1000400011E0A0E0B1E0E4E0F4E002C005900D9220
:10005000A230B107D9F721E0A2E0B1E001C01D92C2
:10006000A331B207E1F702D0CBC1CACFE1E8F0E09B
:10007000808188608083EFE6F0E080818260808309
:10008000ECE7F0E080818064808380818F7D8083D5
:10009000EAE7F0E0808187608083808180688083E8
:1000A00087B187B988B18E6488B9E8E6F0E08081CD
:1000B00082608083ECE6F0E080818E6080837894BB
:1000C00084E294EF90938900809388008AB18760DE
:1000D0008AB98BB187608BB9FFCF009761F4672B2A
:1000E00029F09BB181E089278BB908958BB1876096
:1000F0008BB9589808958130910561F4672B29F0E8
:100100009BB182E089278BB908958BB187608BB949
:10011000599808958230910561F4672B29F09BB1BD
:1001200084E089278BB908958BB187608BB95A9881
:100130000895039769F4672B29F09BB187E089271D
:100140008BB908958BB187608BB95A985998589894
:1001500008951F920F920FB60F9211242F933F9381
:100160004F935F936F937F938F939F93AF93BF93BF
:10017000EF93FF9386B190910001892780930F013F
:1001800096B190930001339941C061E070E083E043
:1001900090E0A3DFF89410920201109203011092F4
:1001A00004011092050133991AC060E070E081E00B
:1001B00090E093DF8091020190910301A0910401EE
:1001C000B09105010196A11DB11D8093020190938C
:1001D0000301A0930401B0930501339BE6CF809106
:1001E000020190910301A0910401B0910501809357
:1001F000060190930701A0930801B093090160E004
:1002000070E080E090E069DF789456C031994DC08D
:1002100061E070E080E090E060DFF894809102019E
:1002200090910301A0910401B0910501892B8A2BC3
:100230008B2BC9F1319932C0809102019091030159
:10024000A0910401B0910501892B8A2B8B2B31F1F0
:1002500060E070E081E090E040DF809102019091E9
:100260000301A0910401B09105010197A109B10911
:100270008093020190930301A0930401B0930501C0
:1002800031990CC08091020190910301A091040169
:10029000B0910501892B8A2B8B2BD1F660E070E0A1
:1002A00082E090E01ADF789407C082FF05C061E029
:1002B00070E082E090E011DFFF91EF91BF91AF918C
:1002C0009F918F917F916F915F914F913F912F916E
:1002D0000F900FBE0F901F9018951F920F920FB6A0
:1002E0000F9211242F933F934F935F936F937F93BC
:1002F0008F939F93AF93BF93EF93FF9380910A01E6
:1003000090910B0101968130910529F090930B019A
:1003100080930A0164C010920B0110920A01EAE76F
:10032000F0E0808180648083808184FDFDCF8091B6
:100330007800909179008B30924018F01092100163
:1003400003C081E080931001809110019091010120
:1003500098130EC020910C0130910D01223031050F
:1003600058F42F5F3F4F30930D0120930C0104C0D0
:1003700010920D0110920C018093010190910E01D9
:10038000913081F4811121C080910C0190910D0177
:100390000297D9F410920E0160E070E082E090E0E4
:1003A0009CDE18C0911111C0813079F480910C014C
:1003B00090910D01029749F481E080930E0160E075
:1003C00070E081E090E089DE05C060E070E083E0ED
:1003D00090E083DEEAE7F0E0808180618083FF9136
:1003E000EF91BF91AF919F918F917F916F915F91AD
:1003F0004F913F912F910F900FBE0F901F90189526
:04040000F894FFCF9E
:020404007F0176
:00000001FF
