S01D00004175746F6D6174656457696E646F775368616465732E7372656393
S113000019C033C032C031C0F7C02FC02EC02DC0BC
S11300102CC02BC02AC029C028C027C026C064C356
S113002024C023C022C021C020C01FC01EC01DC0C8
S11300301CC01BC011241FBECFEFD4E0DEBFCDBF58
S113004011E0A0E0B1E0ECE2F9E002C005900D920D
S1130050A230B107D9F721E0A2E0B1E001C01D92BE
S1130060A831B207E1F74CD05FC4CACF8330A1F402
S1130070219A92EC909380009AE1909381002FEF63
S11300803FE7309387002093860020E137E73093E1
S11300908900209388002CC08230A1F4219A82EC3C
S11300A0809380008AE1809381008FEF9FE7909393
S11300B08700809386008FE298E79093890080936D
S11300C0880008958130A1F4219A82EC8093800005
S11300D08AE1809381008FEF9FE79093870080935C
S11300E0860088EF95E790938900809388000895AF
S11300F0811105C02198E0E8F0E080811082089524
S113010085B5826085BDEEE6F0E080818460808301
S1130110ECE7F0E080818064808380818F7D808340
S1130120EAE7F0E080818760808380818068808353
S113013087B187B988B18E6688B986B18093140176
S1130140E8E6F0E0808182608083ECE6F0E0808184
S11301508E63808378948AEF88BD84B5856084BD7E
S11301608AB187608AB98BB187608BB981E07EDF01
S1130170FFCF009761F4672B29F09BB181E08927B9
S11301808BB908958BB187608BB9589808958130E5
S1130190910561F4672B29F09BB182E089278BB923
S11301A008958BB187608BB9599808958230910571
S11301B061F4672B29F09BB184E089278BB90895FA
S11301C08BB187608BB95A9808958330910571F487
S11301D0672B29F09BB187E089278BB908958BB1F0
S11301E087608BB95A98599858980895019619F4CC
S11301F08BB187608BB908951F920F920FB60F923F
S113020011240F931F932F933F934F935F936F93F7
S11302107F938F939F93AF93BF93EF93FF9386B195
S11302209091140189278093130186B1809314015E
S1130230ECE6F0E080818F7D8083EEE6F0E0808163
S11302408B7F8083339956C0F894109204011092E6
S11302500501109206011092070182E007DF60E0B9
S113026070E082E090E085DF339B16C024C080916B
S1130270040190910501A0910601B0910701019636
S1130280A11DB11D8093040190930501A093060163
S1130290B093070133990FC080910201909103013B
S11302A0892B29F38091040190910501A091060105
S11302B0B0910701DCCF80E0D9DE809104019091F8
S11302C00501A0910601B091070180930801909364
S11302D00901A0930A01B0930B0181E090E090938F
S11302E003018093020160E070E08FEF9FEF41DF34
S11302F07894DDC131994DC0F894809104019091B6
S11303000501A0910601B0910701892B8A2B8B2B43
S113031031F48091020190910301892BC1F581E0B0
S1130320A5DE60E070E083E090E023DF319B16C03F
S113033027C08091040190910501A0910601B0911C
S113034007010197A109B109809304019093050164
S1130350A0930601B0930701319912C08091020164
S113036090910301892B29F3809104019091050157
S1130370A0910601B0910701892B8A2B8B2BC9F61A
S113038080E074DE60E070E08FEF9FEFF2DE78943F
S11303908EC132995FC0F8944091040150910501D7
S11303A06091060170910701809108019091090103
S11303B0A0910A01B0910B01481759076A077B07FE
S11303C030F08091020190910301892BE1F582E0E4
S11303D04DDE60E070E081E090E0CBDE329B16C041
S11303E030C08091040190910501A0910601B09163
S11303F007010196A11DB11D80930401909305018D
S1130400A0930601B093070132991BC080910201A9
S113041090910301892B29F3409104015091050126
S11304206091060170910701809108019091090182
S1130430A0910A01B0910B01481759076A077B077D
S113044080F280E013DE789460E070E08FEF9FEF3D
S113045090DE2DC18091130184FF0EC0349B06C031
S113046060E070E082E090E084DE21C160E070E052
S113047080E090E07EDE1BC1359919C12091110105
S11304803091120182E090E0F0E0E0E021153105C6
S113049009F08BC00091040110910501209106011F
S11304A030910701409108015091090160910A01BE
S11304B070910B01041715072607370709F479C053
S11304C0109212011092110160E070E081E090E05E
S11304D050DE60E070E08FEF9FEF4BDE809104010F
S11304E090910501A0910601B09107010196A11D0B
S11304F0B11D8093040190930501A0930601B0936C
S1130500070182E0B3DD409104015091050160913F
S11305100601709107018091080190910901A09151
S11305200A01B0910B01481759076A077B07A0F528
S11305308091020190910301019771F5809104016A
S113054090910501A0910601B09107010196A11DAA
S1130550B11D8093040190930501A0930601B0930B
S113056007014091040150910501609106017091C9
S113057007018091080190910901A0910A01B091AD
S11305800B01481759076A077B0730F48091020171
S113059090910301019791F280E068DD81E090E0A1
S11305A090931201809311017DC02130310509F02F
S11305B072C040910401509105016091060170914F
S11305C00701452B462B472B09F463C081E090E0DB
S11305D0909312018093110160E070E082E090E05A
S11305E0C8DD8091040190910501A0910601B091AC
S11305F007010197A109B1098093040190930501B2
S1130600A0930601B093070160E070E08FEF9FEFC5
S1130610B0DD81E02BDD8091040190910501A09172
S11306200601B0910701892B8A2B8B2B59F18091FC
S1130630020190910301019729F5809104019091A1
S11306400501A0910601B09107010197A109B10923
S11306508093040190930501A0930601B0930701D0
S11306608091040190910501A0910601B0910701C8
S1130670892B8A2B8B2B31F08091020190910301FD
S11306800197D9F280E0F2DC10921201109211016C
S113069009C02F2F3E2F019709F0F8CE3093120195
S11306A02093110160E070E08FEF9FEF62DDECE6D4
S11306B0F0E0808180628083EEE6F0E080818460F7
S11306C08083FF91EF91BF91AF919F918F917F9123
S11306D06F915F914F913F912F911F910F910F90C7
S11306E00FBE0F901F9018951F920F920FB60F9286
S11306F011242F933F934F935F936F937F938F9323
S11307009F93AF93BF93EF93FF9380910C019091CC
S11307100D01019680322EE4920729F090930D0189
S113072080930C01F0C010920D0110920C01EAE7C5
S1130730F0E0808180648083808184FDFDCF80919E
S11307407800909179008B30924018F01092150146
S113075003C081E0809315018091150190910001FF
S113076098130EC020910E0130910F0122303105F3
S113077058F42F5F3F4F30930F0120930E0104C0B4
S113078010920F0110920E018093000190911001BC
S1130790913009F04CC08111ACC080910E01909150
S11307A00F01029709F0A5C060E070E082E090E0DC
S11307B0E0DC1092100181E059DC809104019091F9
S11307C00501A0910601B0910701892B8A2B8B2B7F
S11307D059F18091020190910301019729F58091CB
S11307E0040190910501A0910601B09107010197C0
S11307F0A109B1098093040190930501A093060116
S1130800B09307018091040190910501A091060124
S1130810B0910701892B8A2B8B2B31F08091020137
S1130820909103010197D9F280E020DC67C0911117
S113083060C0813009F05DC080910E0190910F017C
S1130840029709F056C060E070E081E090E091DC2E
S113085081E08093100182E009DC40910401509111
S11308600501609106017091070180910801909142
S11308700901A0910A01B0910B01481759076A07B1
S11308807B07A0F58091020190910301019771F516
S11308908091040190910501A0910601B091070196
S11308A00196A11DB11D8093040190930501A093AD
S11308B00601B09307014091040150910501609134
S11308C00601709107018091080190910901A0919E
S11308D00A01B0910B01481759076A077B0730F4E6
S11308E08091020190910301019791F280E0BEDBB7
S11308F005C060E070E083E090E03BDCEAE7F0E014
S1130900808180618083FF91EF91BF91AF919F912E
S11309108F917F916F915F914F913F912F910F90A4
S10F09200FBE0F901F901895F894FFCFA5
S105092C0100C4
S9030000FC
