:1000000019C028C027C026C025C024C023C022C0D4
:1000100021C020C01FC041C01DC01CC01BC01AC0D1
:1000200019C018C017C016C015C014C013C012C024
:1000300011C010C011241FBECFEFD4E0DEBFCDBF72
:1000400021E0A0E0B1E001C01D92A730B207E1F7C6
:1000500002D09AC0D5CFE1E8F0E08081886080834B
:10006000AFE6B0E08C9182608C93ACE7B0E08C910D
:1000700080648C93AAE7B0E08C9187608C938C911C
:1000800080688C93789484E294EF909389008093B5
:100090008800808185608083FFCF1F920F920FB60A
:1000A0000F9211242F933F938F939F93EF93FF937E
:1000B000809103019091040101968E31910529F000
:1000C000909304018093030154C010920401109294
:1000D0000301EAE7F0E0808180648083808184FF0F
:1000E000FDCF80917800909179008B30924018F08C
:1000F0001092060103C081E0809306018091060101
:100100009091050198130EC02091000130910101DA
:100110002530310558F42F5F3F4F30930101209374
:10012000000104C0109201011092000180930501AA
:1001300090910201913059F4811116C08091000113
:1001400090910101059781F4109202010DC0911167
:100150000BC0813049F48091000190910101059715
:1001600019F481E080930201EAE7F0E08081806188
:100170008083FF91EF919F918F913F912F910F90ED
:0C0180000FBE0F901F901895F894FFCF51
:00000001FF
