:1000000019C033C032C031C0F5C02FC02EC02DC0C2
:100010002CC02BC02AC0BEC128C027C026C025C006
:1000200024C023C022C021C020C01FC01EC01DC0CC
:100030001CC01BC011241FBECFEFD4E0DEBFCDBF5C
:1000400011E0A0E0B1E0EEEBF4E002C005900D920B
:10005000A230B107D9F721E0A2E0B1E001C01D92C2
:10006000A331B207E1F702D028C2CACFE1E8F0E03D
:10007000808188608083EFE6F0E080818260808309
:10008000ECE7F0E080818064808380818F7D8083D5
:10009000EAE7F0E0808187608083808180688083E8
:1000A00087B187B988B18E6488B9E8E6F0E08081CD
:1000B00082608083ECE6F0E080818E6280837894B9
:1000C00084E294EF90938900809388008AB18760DE
:1000D0008AB98BB187608BB9FFCF8330A1F4219AA5
:1000E00092EC909380009AE1909381002FEF3FE78C
:1000F000309387002093860020E137E73093890012
:10010000209388002CC08230A1F4219A82EC809345
:1001100080008AE1809381008FEF9FE790938700B2
:10012000809386008FE298E79093890080938800FF
:1001300008958130A1F4219A82EC809380008AE1B5
:10014000809381008FEF9FE79093870080938600D4
:1001500088EF95E790938900809388000895811136
:1001600005C02198E0E8F0E08081108208950097B2
:1001700061F4672B29F09BB181E089278BB9089541
:100180008BB187608BB9589808958130910561F4DF
:10019000672B29F09BB182E089278BB908958BB139
:1001A00087608BB9599808958230910561F4672B67
:1001B00029F09BB184E089278BB908958BB18760C2
:1001C0008BB95A9808958330910571F4672B29F003
:1001D0009BB187E089278BB908958BB187608BB974
:1001E0005A98599858980895019619F48BB18760D8
:1001F0008BB908951F920F920FB60F9211242F936F
:100200003F934F935F936F937F938F939F93AF939E
:10021000BF93EF93FF9386B190910001892780935C
:100220000F0196B190930001339948C0F894109251
:10023000020110920301109204011092050182E064
:100240004CDF60E070E081E090E091DF33991DC009
:100250008091020190910301A0910401B0910501E8
:100260008091020190910301A0910401B0910501D8
:100270000196A11DB11D8093020190930301A093EB
:100280000401B0930501339BE3CF80E026DF80912A
:10029000020190910301A0910401B09105018093A6
:1002A000060190930701A0930801B093090160E053
:1002B00070E08FEF9FEF5BDF78945BC0319928C0CF
:1002C000F89481E00ADF60E070E081E090E04FDFC9
:1002D000319915C08091020190910301A091040110
:1002E000B09105010197A109B10980930201909392
:1002F0000301A0930401B0930501319BEBCF80E093
:10030000ECDE60E070E08FEF9FEF31DF789431C07A
:10031000329928C0F89482E0E0DE60E070E081E08D
:1003200090E025DF329915C0809102019091030180
:10033000A0910401B09105010196A11DB11D80930A
:10034000020190930301A0930401B0930501329B35
:10035000EBCF80E0C2DE789460E070E08FEF9FEF3B
:1003600006DF07C085FF05C061E070E083E090E034
:10037000FEDEFF91EF91BF91AF919F918F917F91A1
:100380006F915F914F913F912F910F900FBE0F9002
:100390001F9018951F920F920FB60F9211242F9352
:1003A0003F934F935F936F937F938F939F93AF93FD
:1003B000BF93EF93FF9380910A0190910B010196F7
:1003C0008130910529F090930B0180930A0164C05C
:1003D00010920B0110920A01EAE7F0E0808180643C
:1003E0008083808184FDFDCF809178009091790099
:1003F0008B30924018F01092100103C081E080937E
:100400001001809110019091010198130EC020916C
:100410000C0130910D012230310558F42F5F3F4F10
:1004200030930D0120930C0104C010920D01109225
:100430000C018093010190910E01913081F48111A2
:1004400021C080910C0190910D010297D9F4109276
:100450000E0160E070E082E090E089DE18C091114A
:1004600011C0813079F480910C0190910D010297B7
:1004700049F481E080930E0160E070E081E090E05B
:1004800076DE05C060E070E083E090E070DEEAE7D1
:10049000F0E0808180618083FF91EF91BF91AF9107
:1004A0009F918F917F916F915F914F913F912F918C
:0E04B0000F900FBE0F901F901895F894FFCF7D
:0204BE007F01BC
:00000001FF
